:100000008A11332E00308A000408840A82070034E3
:100010000134023404340834103420344034803441
:100C560005340034063400348534003486340034D8
:100C6600831203138A112B268A11A9008A112C26B6
:100C76008A11AA008A112D268A11AB008A112E2606
:100C86008A11AC008A112F268A11AD008A113026EE
:100C96008A11AE008A1131268A11AF008A113226D6
:100CA6008A11B00083018A11882F83120313A100D1
:100CB6000830F0000030F1002108FA00FB017A0844
:100CC600F2007B08F3008A1116278A117008FC00CF
:100CD6007C0883120313A20021080739FA007A0858
:100CE600A3002208FA007A07293E8400831300082D
:100CF600FB00840A0008FC007B08840083177C1C28
:100D060083130008FD007D08A000F908031D8C2E42
:100D16008D2E982E2308013E84008A1102208A1106
:100D2600FF3AFA007A08A005A22E2308013E8400A5
:100D36008A1102208A11FA007A08A004A22E20083D
:100D4600FA002208FB007B07293E84008313000873
:100D5600FC00840A0008FD007C08840083177D1CC3
:100D660083137A088000080083120313A100083059
:100D7600F0000030F1002108FA00FB017A08F200C9
:100D86007B08F3008A1116278A117008FC007C087C
:100D960083120313A20021080739FA007A08A30078
:100DA6002208FA007A072D3E840083130008FB0010
:100DB600840A0008FC007B08840083177C1C8313CC
:100DC6000008FD007D08A000F908031DEB2EEC2E9F
:100DD600F72E2308013E84008A1102208A11FF3A69
:100DE600FA007A08A005012F2308013E84008A1123
:100DF60002208A11FA007A08A004012F2008FA00BE
:100E06002208FB007B072D3E840083130008FC00AC
:100E1600840A0008FD007C08840083177D1C831368
:100E26007A0880000800F601F11F1A2F1B2F232FC6
:100E3600F009F109F00A0319F10AF601F60A232F5F
:100E4600F31F262F272F312FF209F309F20A031970
:100E5600F30A0130F4007408F606312FF701F801A1
:100E6600710870040319382F392F762FF501F50A0A
:100E7600482F01300310F00DF10DFF3E031D3D2FED
:100E86000130F4007408F507482FF11F4B2F4C2F43
:100E96003C2F4E2F4E2F01300310F70DF80DFF3E5D
:100EA600031D4F2F71087302031D5B2F700872021A
:100EB600031C5E2F5F2F672F7008F2027108031C58
:100EC600F303F3027714672F01300310F10CF00CD3
:100ED600FF3E031D682F0130F502031D732F742F8B
:100EE6004E2F762F762F7608031D7A2F802FF7093F
:100EF600F809F70A0319F80A802F7808F101F107B3
:100F06007708F001F007872F0800831603139B016B
:100F1600F90108308A11B7268A11F90109308A11B8
:100F2600B7268A11F9010A308A11B7268A11F90102
:100F36000B308A11B7268A11F9010C308A11B726AF
:100F46008A11F9010D308A11B7268A11F9010E307E
:100F56008A11B7268A11F9010F308A11B7268A112C
:100F6600B42F083083120313A7000030A800280806
:100F7600803AFF0080307F02031DC32F1030270206
:100F8600031CC62FC72FC92FB42FB42FF901F90A96
:100F96008312031327088A1158268A1103308312F5
:100FA6000313A6008A30A5005630A400A40BD92F3F
:100FB600A50BD92FA60BD92FE02FF9018312031306
:100FC60027088A1158268A11013083120313A707AE
:100FD6000318A80A0030A8072808803AFF008030C6
:100FE6007F02031DF82F10302702031CFB2FFC2F56
:0A0FF600C92FB42FB42F8A11002870
:04400E0029FFFCFF8B
:00000001FF
